:100000000208001201101200D67BFF7A0179381223
:1000100000B17FC01201247BFF7A0179411200B147
:100020007FE87E0312008B7F011201247F80120182
:10003000247BFF7A01794B1200B17FC01201247B2F
:10004000FF7A0179681200B17FE87E0312008B808D
:10005000FE20300800040E04150E040000040E0EED
:100060000E1F0400000A1511110A04000E11111FC1
:100070001B1B1B1F0E11101F1B1B1B1F000E151B14
:100080000E0E000000D2A17F017E00E4FDFCD3ED46
:100090009FEE6480F8EC6480985015E4FBFA0BBB8B
:1000A00000010ABA04F8BBFCF50DBD00010C80DEAE
:1000B000228B388A39893AAB38AA39A93A1200F723
:1000C0006013053AE53A7002053914F91200F7FF9A
:1000D00012012E80E2227F40120124900000AF82A4
:1000E00074082FF8E6FF12012EA3E58264304583E1
:1000F00070EC7F80020124BB010689828A83E022A2
:100100005002E722BBFE02E32289828A83E4932223
:100110007F381201247F0C1201247F011201247FF9
:10012000800201248F80C2A0120085C2A1228F808C
:10013000D2A0120085C2A122204D4F4E414C492031
:1001400000204B415448414E452000204248415236
:10015000415420454C454354524F4E494353204C43
:10016000494D495445442000204F4E204C434420E3
:0601700031362A322000A6
:10080000787FE4F6D8FD75813A020847020003E4D8
:1008100093A3F8E493A34003F68001F208DFF48089
:1008200029E493A3F85407240CC8C333C4540F44D9
:1008300020C8834004F456800146F6DFE4800B01B3
:1008400002040810204080900051E47E019360BCB7
:10085000A3FF543F30E509541FFEE493A360010E4B
:10086000CF54C025E060A840B8E493A3FAE493A372
:10087000F8E493A3C8C582C8CAC583CAF0A3C8C593
:0C08800082C8CAC583CADFE9DEE780BE7B
:00000001FF
