:100A090070616E6B616A20646168696C6B61720008
:10087200750868C2A27B43AD087FA01209F07F64AD
:100882007E0012099D7BFF7A0A790975160FE4FD35
:100892007FA01208C0AD087FA01209BB8F097F6438
:1008A2007E0012099D7B007A00790A751607E4FD25
:0E08B2007FA0120800E509B44302D2A280FE26
:10099D00D3EF9400EE940040147D7D7C00ED1D702E
:0D09AD00011CED4C70F7EF1F70E61E80E39B
:0109BA00221A
:0E0A1900EFD394007480948040031F80F3227A
:070A5000D2A1D2A0C2A12235
:090A3E00C2A0C2A1D2A0D2A122E3
:090A4700C2A0D2A1D2A0C2A122DA
:02094400AD07FD
:10094600E4FCECC39408748094805025C2A07E0019
:100956007480A804088006CEA2E713CE13D8F8FF49
:10096600EDFBEF5B6003D38001C392A1D2A00C80A4
:01097600D1AF
:01097700225D
:1009D600A905120A501209441209E6AF0112094488
:0A09E600C2A0D2A1D2A020A1FD22E0
:070A5700C2A0D2A1D2A0222F
:0B0A3300C2A0C2A1D2A0C2A0D2A1228A
:10097800E4FFFEEEC39408748094805017C2A0D29E
:10098800A030A10DA8067480088002C313D8FC42C9
:04099800070E80DFE7
:01099C002238
:1009F000AE07AA031209D6AF021209441209E61281
:090A00000A3E7F0A7E0002099DF6
:0209BB00AA0789
:1009BD001209D6120A47EA4401FF1209441209E648
:0909CD00120978120A57020A3ED1
:0808C0008D128B138A148915B7
:1008C800120A501209441209E6AF12120944120919
:1008D800E6E4F517E517C39516501CAB130515E5A7
:1008E80015AA147002051414F9120909FF12094413
:1008F8001209E6051780DD120A3E7F0A7E0002090A
:010908009D51
:0A0800008F118D128B138A148915D5
:10080A00120A50AF111209441209E6AF1212094432
:10081A001209E6120A47E5114401FF1209441209B6
:10082A00E6E4FDE51614FFEDC39F5018120978ABF4
:10083A0013AA14A9158D82758300EF120922120AD0
:10084A00330D80DF120978AB13AA14A915AE050D72
:10085A008E82758300EF1209228D82758300E4125D
:08086A000922120A57020A3E9E
:03000000020A27CA
:0C0A2700787FE4F6D8FD75811702087294
:10090900BB010689828A83E0225002E722BBFE02EC
:09091900E32289828A83E493221F
:10092200F8BB010DE58229F582E5833AF583E8F00B
:10093200225006E92582C8F622BBFE05E92582C8B7
:02094200F2229F
:00000001FF
