:10092100751570C2A27B42AD157FA01209B47F6418
:100931007E00120944AD157FA012097EBF4202D28A
:03094100A280FE93
:10094400D3EF9400EE940040147D7D7C00ED1D7087
:0D095400011CED4C70F7EF1F70E61E80E3F4
:010961002273
:0A09E400EFD3940040031F80F722B8
:070A0000D2A1D2A0C2A12285
:0208F600AD074C
:1008F800E4FCC2A074807E00A804088006CEA2E7AB
:1009080013CE13D8F8FFEDFBEF5B6003D38001C370
:0809180092A1D2A00CBC08DA88
:0109200022B4
:10099A00A905120A001208F61209AAAF011208F6EE
:0A09AA00C2A0D2A1D2A020A1FD221C
:0909EE00C2A0C2A1D2A0D2A12234
:0909F700C2A0D2A1D2A0C2A1222B
:070A0700C2A0D2A1D2A0227F
:0B09D900C2A0C2A1D2A0C2A0D2A122E5
:10096200E4FFFEC2A0D2A030A10D7480A8060880C8
:0B09720002C313D8FC42070EBE08E8C9
:01097D002257
:1009B400AE07AA0312099AAF021208F61209AA1284
:0909C40009EE7F0A7E00020944DD
:02097E00AA07C6
:1009800012099A1209F7EA4401FF1208F61209AA9D
:09099000120962120A071209EEB5
:01099900223B
:080872008D098B0A8A0B890C29
:10087A00120A001208F61209AAAF091208F612099A
:10088A00AAE4F50EE50EC3950D501CAB0A050CE55E
:10089A000CAA0B7002050B14F91208BBFF1208F61A
:1008AA001209AA050E80DD1209EE7F0A7E000209EE
:0108BA0044F9
:0A0800008F0F8D108B118A128913DF
:10080A00120A00AF0F1208F61209AAAF101208F660
:10081A001209AA1209F7E50F4401FF1208F6120994
:10082A00AAE4FDE51414FFEDC39F5018120962AB48
:10083A0011AA12A9138D82758300EF1208D4120926
:10084A00D90D80DF120962AB11AA12A913AE050DE8
:10085A008E82758300EF1208D48D82758300E412AC
:08086A0008D4120A070209EE8E
:030000000209CD25
:0C09CD00787FE4F6D8FD75811502092141
:1008BB00BB010689828A83E0225002E722BBFE023B
:0908CB00E32289828A83E493226E
:1008D400F8BB010DE58229F582E5833AF583E8F05A
:1008E400225006E92582C8F622BBFE05E92582C806
:0208F400F222EE
:00000001FF
