:070F3500D2A1D2A0C2A1224B
:090F0A00C2A0C2A1D2A0D2A12212
:090F1300C2A0D2A1D2A0C2A12209
:020C5300AD07EB
:100C5500E4FCECC39408748094805025C2A07E0007
:100C65007480A804088006CEA2E713CE13D8F8FF37
:100C7500EDFBEF5B6003D38001C392A1D2A00C8092
:010C8500D19D
:010C8600224B
:100D6E00E4FFFEEEC39408748094805017C2A0D2A4
:100D7E00A030A10DA8067480088002C313D8FC42CF
:040D8E00070E80DFED
:010D9200223E
:100E1000A905120F35120C53120E20AF01120C53FC
:0A0E2000C2A0D2A1D2A020A1FD22A1
:070F3C00C2A0D2A1D2A02245
:0B0EFF00C2A0C2A1D2A0C2A0D2A122BA
:100E2A00AE07AA03120E10AF02120C53120E2012B2
:090E3A000F0A7F0A7E00020DB8C8
:080C0A008D5D8B5E8A5F89603D
:100C1200120F35120C53120E20AF5D120C53120E2E
:100C220020E4F562E562C39561501CAB5E0560E5A8
:100C320060AA5F7002055F14F9120800FF120C53DC
:100C4200120E20056280DD120F0A7F0A7E00020D5D
:010C5200B8E9
:020DF500AA074B
:100DF700120E10120F13EA4401FF120C53120E20A9
:090E0700120D6E120F3C020F0ADD
:0A0A90008F638D648B658A668967A9
:100A9A00120F35AF63120C53120E20AF64120C53AF
:100AAA00120E20120F13E5634401FF120C53120EAB
:100ABA0020E4FDE56814FFEDC39F5018120D6EABDC
:100ACA0065AA66A9678D82758300EF12082B120E3C
:100ADA00FF0D80DF120D6EAB65AA66A967AE050D24
:100AEA008E82758300EF12082B8D82758300E412C3
:080AFA00082B120F3C020F0A49
:100DB800D3EF9400EE940040167D7DEDD39400743B
:0F0DC80080948040031D80F3EF1F70E41E80E1D4
:010DD70022F9
:0E0ED700EFD394007480948040031F80F322B8
:100DD8002057454C434F4D200020544F20434C4F43
:0D0DE800434B200054696D65203D20000044
:100B0200753966E4F53A753B2D120EF3120E5B7FD2
:100B120001120EA77F80120EA77BFF7A0D79D812E1
:100B22000D937FC0120EA77BFF7A0D79E1120D9310
:100B32007F647E00120DB87B377D047F12120CBBDE
:100B42007B147D067F1A120CE97BFF7A0D79EC1279
:100B52000E827D057F12120F43120F1C1208D88FCE
:100B6200387F01120EA77F80120EA7AF38120EB780
:020B720080E71A
:090E4300900001EF12082BAF052D
:0E0E4C00EFC4540F75F00AA4FEEF540F2EFFF2
:010E5A002275
:100E6F00EF75F00A84FEEF75F00A84EEC454F02596
:020E7F00F0FF82
:010E8100224E
:020CBB00AC0388
:100CBD00120E6F8F4DAF05120E6F8F4EAF04120EC9
:100CCD006FAB07E4FD7FD0120E2AAB4E7D017FD0B6
:0C0CDD00120E2AAB4D7D027FD0020E2AC1
:020CE900AC035A
:100CEB00120E6FAB07AF05120E6F8F4DAF04120EC6
:100CFB006F8F4E7D047FD0120E2AAB4D7D057FD0BA
:0C0D0B00120E2AAB4E7D067FD0020E2A8D
:060B74008B698A6A896B9F
:100B7A007D027FD0120DF58F6C7D017FD0120DF5AD
:100B8A008F6DE4FD7FD0120DF5AD07AF6C120E4CE0
:100B9A00AB69AA6AA96BEF120819AF6D120E4CABBA
:100BAA0069AA6AA96B120E43AB69AA6AA96B90007B
:050BBA0002EF02082B10
:060BBF008B6E8A6F897045
:100BC5007D047FD0120DF58F717D057FD0120DF557
:100BD5008F727D067FD0120DF5AD07AF71120E4CE9
:100BE500AB6EAA6FA970EF120819AF72120E4CAB5B
:100BF5006EAA6FA970120E43AB6EAA6FA970900012
:050C050002EF02082BC4
:050F43008F778D76227E
:0E0EE500EFB57707EDB576037F01227F00227F
:0C0EF300759850758920758DFDD28E22F7
:080F25008F993099FDC2992259
:070F2D003098FDAF99C29856
:010F3400229A
:100E8200120800FF600C120F25740129F9E43AFAE6
:030E920080EE22CD
:040D4300AB07AA064A
:100D47007C007D0A12084DEF2430F573AE02AF0325
:100D57007C007D0A12084DED2430F574E4F575FB2F
:070D67007A007973020E828D
:100C870020300800040E04150E040000040E0E0E9A
:100C97001F0400000A1511110A04000E11111F1B71
:100CA7001B1B1F0E11101F1B1B1B1F000E151B0EDE
:030CB7000E00002C
:100E5B007F38120EA77F0C120EA77F01120EA77FF1
:040E6B0080020EA74C
:100EA7008F80C2B2D2B37F017E00120DB8C2B322C7
:100EB7008F80D2B2D2B37F017E00120DB8C2B322A7
:100D93008B4D8A4E894FAB4DAA4EA94F1208006066
:100DA30013054FE54F7002054E14F9120800FF12A8
:050DB3000EB780E222F2
:100D17007F40120EA7E4F578F57974082579F8E68F
:100D2700FF120EB70579E57970020578C39430E5AF
:0C0D3700786480948040E37F80020EA767
:040977008E508F51BE
:10097B00E4F552F553AB51AA50D3EB9400EA6480E3
:10098B00948040327C007D0AAF03AE0212084D8D7D
:10099B005BE55B2430FF74542553F8A6077C007D80
:1009AB000AAF03AE0212084DAA06AB070553E55377
:1009BB0070C7055280C3E553155370021552C3E53A
:1009CB0051940AE5506480948050057F30120EB725
:1009DB00E551455070057F30120EB7C3E552648068
:1009EB009480401474542553F8E6FF120EB7E55368
:0809FB00155370E7155280E36B
:010A030022D0
:100EC7003031323334353637383941424344454679
:090F1C00C293C292C291C290225C
:100E950030940C3095093096063097037F01227FF8
:020EA500002229
:1008D800120E95EF70FAC290D293D292D291120E64
:1008E80095EF7004F57A8037C291D293D292D29064
:1008F800120E95EF7005757A018024C292D293D2B8
:1009080091D290120E95EF7005757A028011C293FC
:10091800D292D291D290120E95EF7003757A03207D
:100928009405E4F57B8013209505757B01800B20E9
:100938009605757B028003757B03120E95EF60FAAE
:10094800AF7AEF3395E0FEEF7802C333CE33CED8DB
:10095800F924C7F582740E3EF583AF7BEF3395E03B
:0E096800FEE5822FF582E5833EF583E493FFE2
:01097600225E
:03000000020A04ED
:0C0A0400787FE4F6D8FD75817B020A4B78
:10080000BB010689828A83E0225002E722BBFE02F6
:09081000E32289828A83E4932229
:10081900BB010689828A83F0225002F722BBFE01BE
:02082900F322B8
:10082B00F8BB010DE58229F582E5833AF583E8F003
:10083B00225006E92582C8F622BBFE05E92582C8AF
:02084B00F22297
:10084D00C2D5EC30E709B2D5E4C39DFDE49CFCEEC6
:10085D0030E715B2D5E4C39FFFE49EFE120883C3B3
:10086D00E49DFDE49CFC800312088330D507C3E4AE
:06087D009FFFE49EFE2235
:100A1000020B02E493A3F8E493A34003F68001F2EF
:100A200008DFF48029E493A3F85407240CC8C333E7
:100A3000C4540F4420C8834004F456800146F6DFB6
:100A4000E4800B0102040810204080900C87E47EB3
:100A5000019360BCA3FF543F30E509541FFEE493AB
:100A6000A360010ECF54C025E060A840B8E493A372
:100A7000FAE493A3F8E493A3C8C582C8CAC583CA9D
:100A8000F0A3C8C582C8CAC583CADFE9DEE780BE55
:010CBA000039
:10088300BC000BBE0029EF8DF084FFADF022E4CC59
:10089300F875F008EF2FFFEE33FEEC33FCEE9DEC22
:1008A300984005FCEE9DFE0FD5F0E9E4CEFD22ED68
:1008B300F8F5F0EE8420D21CFEADF075F008EF2FB2
:1008C300FFED33FD4007985006D5F0F222C398FDA3
:0508D3000FD5F0EA2240
:00000001FF
